{
  "contractName": "Donations",
  "abi": [
    {
      "inputs": [],
      "payable": false,
      "stateMutability": "nonpayable",
      "type": "constructor"
    },
    {
      "anonymous": false,
      "inputs": [
        {
          "indexed": false,
          "internalType": "bool",
          "name": "refresh",
          "type": "bool"
        }
      ],
      "name": "LogRefresh",
      "type": "event"
    },
    {
      "anonymous": false,
      "inputs": [
        {
          "indexed": false,
          "internalType": "address",
          "name": "accountAddress",
          "type": "address"
        }
      ],
      "name": "LogSetBeneficiary",
      "type": "event"
    },
    {
      "payable": true,
      "stateMutability": "payable",
      "type": "fallback"
    },
    {
      "constant": true,
      "inputs": [],
      "name": "beneficiary",
      "outputs": [
        {
          "internalType": "address payable",
          "name": "",
          "type": "address"
        }
      ],
      "payable": false,
      "stateMutability": "view",
      "type": "function"
    },
    {
      "constant": true,
      "inputs": [],
      "name": "donationAmt",
      "outputs": [
        {
          "internalType": "uint256",
          "name": "",
          "type": "uint256"
        }
      ],
      "payable": false,
      "stateMutability": "view",
      "type": "function"
    },
    {
      "constant": true,
      "inputs": [],
      "name": "emergencyTxt",
      "outputs": [
        {
          "internalType": "string",
          "name": "",
          "type": "string"
        }
      ],
      "payable": false,
      "stateMutability": "view",
      "type": "function"
    },
    {
      "constant": true,
      "inputs": [],
      "name": "lockTxt",
      "outputs": [
        {
          "internalType": "string",
          "name": "",
          "type": "string"
        }
      ],
      "payable": false,
      "stateMutability": "view",
      "type": "function"
    },
    {
      "constant": true,
      "inputs": [],
      "name": "newBalance",
      "outputs": [
        {
          "internalType": "uint256",
          "name": "",
          "type": "uint256"
        }
      ],
      "payable": false,
      "stateMutability": "view",
      "type": "function"
    },
    {
      "constant": true,
      "inputs": [],
      "name": "oldBalance",
      "outputs": [
        {
          "internalType": "uint256",
          "name": "",
          "type": "uint256"
        }
      ],
      "payable": false,
      "stateMutability": "view",
      "type": "function"
    },
    {
      "constant": true,
      "inputs": [],
      "name": "oldDonationAmt",
      "outputs": [
        {
          "internalType": "uint256",
          "name": "",
          "type": "uint256"
        }
      ],
      "payable": false,
      "stateMutability": "view",
      "type": "function"
    },
    {
      "constant": true,
      "inputs": [],
      "name": "owner",
      "outputs": [
        {
          "internalType": "address payable",
          "name": "",
          "type": "address"
        }
      ],
      "payable": false,
      "stateMutability": "view",
      "type": "function"
    },
    {
      "constant": true,
      "inputs": [],
      "name": "targetAmt",
      "outputs": [
        {
          "internalType": "uint256",
          "name": "",
          "type": "uint256"
        }
      ],
      "payable": false,
      "stateMutability": "view",
      "type": "function"
    },
    {
      "constant": false,
      "inputs": [
        {
          "internalType": "uint256",
          "name": "_targetAmt",
          "type": "uint256"
        }
      ],
      "name": "setDonationAndBeneficiary",
      "outputs": [
        {
          "internalType": "bool",
          "name": "",
          "type": "bool"
        }
      ],
      "payable": true,
      "stateMutability": "payable",
      "type": "function"
    },
    {
      "constant": false,
      "inputs": [],
      "name": "sendDonations",
      "outputs": [
        {
          "internalType": "bool",
          "name": "",
          "type": "bool"
        }
      ],
      "payable": true,
      "stateMutability": "payable",
      "type": "function"
    },
    {
      "constant": false,
      "inputs": [],
      "name": "withdrawDonations",
      "outputs": [],
      "payable": true,
      "stateMutability": "payable",
      "type": "function"
    },
    {
      "constant": false,
      "inputs": [],
      "name": "toggleContractActive",
      "outputs": [],
      "payable": false,
      "stateMutability": "nonpayable",
      "type": "function"
    },
    {
      "constant": false,
      "inputs": [],
      "name": "unlockLock",
      "outputs": [],
      "payable": true,
      "stateMutability": "payable",
      "type": "function"
    },
    {
      "constant": false,
      "inputs": [],
      "name": "endDonations",
      "outputs": [],
      "payable": true,
      "stateMutability": "payable",
      "type": "function"
    }
  ],
  "bytecode": "0x60806040526000600160006101000a81548173ffffffffffffffffffffffffffffffffffffffff021916908373ffffffffffffffffffffffffffffffffffffffff1602179055506000600360006101000a81548160ff0219169083151502179055506000600360016101000a81548160ff0219169083151502179055506000600360026101000a81548160ff02191690831515021790555060006003806101000a81548160ff02191690831515021790555060405180606001604052806027815260200162001cf26027913960049080519060200190620000e2929190620001d4565b506040518060400160405280601281526020017f4c6f636b206973204e4f542041435449564500000000000000000000000000008152506005908051906020019062000130929190620001d4565b503480156200013e57600080fd5b50336000806101000a81548173ffffffffffffffffffffffffffffffffffffffff021916908373ffffffffffffffffffffffffffffffffffffffff160217905550600060068190555060006007819055506000600360016101000a81548160ff02191690831515021790555060006003806101000a81548160ff02191690831515021790555062093a80600f8190555062000283565b828054600181600116156101000203166002900490600052602060002090601f016020900481019282601f106200021757805160ff191683800117855562000248565b8280016001018555821562000248579182015b82811115620002475782518255916020019190600101906200022a565b5b5090506200025791906200025b565b5090565b6200028091905b808211156200027c57600081600090555060010162000262565b5090565b90565b611a5f80620002936000396000f3fe6080604052600436106100e85760003560e01c806377cabbb91161008a578063bd855b3511610059578063bd855b35146103b3578063cad65b70146103f9578063ce1b088a1461041b578063e9433ab614610425576100e8565b806377cabbb9146102fc5780638576b2e1146103275780638da5cb5b14610331578063bc464ba614610388576100e8565b806338af3eed116100c657806338af3eed146101bf5780633d1237721461021657806345bc73f7146102415780634851cf241461026c576100e8565b80630a80cf34146100ed5780631385d24c1461017d5780631dc8228514610194575b600080fd5b3480156100f957600080fd5b5061010261042f565b6040518080602001828103825283818151815260200191508051906020019080838360005b83811015610142578082015181840152602081019050610127565b50505050905090810190601f16801561016f5780820380516001836020036101000a031916815260200191505b509250505060405180910390f35b34801561018957600080fd5b506101926104cd565b005b3480156101a057600080fd5b506101a96105cb565b6040518082815260200191505060405180910390f35b3480156101cb57600080fd5b506101d46105d1565b604051808273ffffffffffffffffffffffffffffffffffffffff1673ffffffffffffffffffffffffffffffffffffffff16815260200191505060405180910390f35b34801561022257600080fd5b5061022b6105f7565b6040518082815260200191505060405180910390f35b34801561024d57600080fd5b506102566105fd565b6040518082815260200191505060405180910390f35b34801561027857600080fd5b50610281610603565b6040518080602001828103825283818151815260200191508051906020019080838360005b838110156102c15780820151818401526020810190506102a6565b50505050905090810190601f1680156102ee5780820380516001836020036101000a031916815260200191505b509250505060405180910390f35b34801561030857600080fd5b506103116106a1565b6040518082815260200191505060405180910390f35b61032f6106a7565b005b34801561033d57600080fd5b50610346610865565b604051808273ffffffffffffffffffffffffffffffffffffffff1673ffffffffffffffffffffffffffffffffffffffff16815260200191505060405180910390f35b34801561039457600080fd5b5061039d61088a565b6040518082815260200191505060405180910390f35b6103df600480360360208110156103c957600080fd5b8101908080359060200190929190505050610890565b604051808215151515815260200191505060405180910390f35b610401610c26565b604051808215151515815260200191505060405180910390f35b610423611130565b005b61042d611472565b005b60058054600181600116156101000203166002900480601f0160208091040260200160405190810160405280929190818152602001828054600181600116156101000203166002900480156104c55780601f1061049a576101008083540402835291602001916104c5565b820191906000526020600020905b8154815290600101906020018083116104a857829003601f168201915b505050505081565b6000809054906101000a900473ffffffffffffffffffffffffffffffffffffffff1673ffffffffffffffffffffffffffffffffffffffff163373ffffffffffffffffffffffffffffffffffffffff161461052657600080fd5b600360029054906101000a900460ff1615600360026101000a81548160ff021916908315150217905550600360029054906101000a900460ff16156105995760405180606001604052806023815260200161193c6023913960049080519060200190610593929190611830565b506105c9565b60405180606001604052806027815260200161195f60279139600490805190602001906105c7929190611830565b505b565b60095481565b600160009054906101000a900473ffffffffffffffffffffffffffffffffffffffff1681565b60085481565b60065481565b60048054600181600116156101000203166002900480601f0160208091040260200160405190810160405280929190818152602001828054600181600116156101000203166002900480156106995780601f1061066e57610100808354040283529160200191610699565b820191906000526020600020905b81548152906001019060200180831161067c57829003601f168201915b505050505081565b60075481565b6000809054906101000a900473ffffffffffffffffffffffffffffffffffffffff1673ffffffffffffffffffffffffffffffffffffffff163373ffffffffffffffffffffffffffffffffffffffff161461070057600080fd5b60011515600360029054906101000a900460ff16151514610789576040517f08c379a000000000000000000000000000000000000000000000000000000000815260040180806020018281038252601d8152602001807f456d657267656e63792073746f70206973206e6f74206163746976652e00000081525060200191505060405180910390fd5b6003809054906101000a900460ff16156003806101000a81548160ff0219169083151502179055506003809054906101000a900460ff1615610816576040518060400160405280600e81526020017f4c6f636b2069732041435449564500000000000000000000000000000000000081525060059080519060200190610810929190611830565b50610863565b6040518060400160405280601281526020017f4c6f636b206973204e4f5420414354495645000000000000000000000000000081525060059080519060200190610861929190611830565b505b565b6000809054906101000a900473ffffffffffffffffffffffffffffffffffffffff1681565b600a5481565b6000801515600360009054906101000a900460ff161515146108fd576040517f08c379a00000000000000000000000000000000000000000000000000000000081526004018080602001828103825260238152602001806119df6023913960400191505060405180910390fd5b60001515600360029054906101000a900460ff16151514610986576040517f08c379a00000000000000000000000000000000000000000000000000000000081526004018080602001828103825260198152602001807f456d657267656e63792073746f70206973206163746976652e0000000000000081525060200191505060405180910390fd5b6000809054906101000a900473ffffffffffffffffffffffffffffffffffffffff1673ffffffffffffffffffffffffffffffffffffffff163373ffffffffffffffffffffffffffffffffffffffff161415610a49576040517f08c379a000000000000000000000000000000000000000000000000000000000815260040180806020018281038252601c8152602001807f4f776e65722063616e6e6f742062652062656e65666963696172792e0000000081525060200191505060405180910390fd5b60008211610aa2576040517f08c379a0000000000000000000000000000000000000000000000000000000008152600401808060200182810382526029815260200180611a026029913960400191505060405180910390fd5b610ab6600a8361158e90919063ffffffff16565b3411610b0d576040517f08c379a00000000000000000000000000000000000000000000000000000000081526004018080602001828103825260428152602001806118fa6042913960600191505060405180910390fd5b813410610b65576040517f08c379a00000000000000000000000000000000000000000000000000000000081526004018080602001828103825260388152602001806119a76038913960400191505060405180910390fd5b6001600360006101000a81548160ff02191690831515021790555034600c819055508160068190555033600160006101000a81548173ffffffffffffffffffffffffffffffffffffffff021916908373ffffffffffffffffffffffffffffffffffffffff160217905550600060088190555060006009819055503073ffffffffffffffffffffffffffffffffffffffff1631600a8190555042600b81905550610c1b600f54600b546115d890919063ffffffff16565b600b81905550919050565b6000801515600360029054906101000a900460ff16151514610cb0576040517f08c379a00000000000000000000000000000000000000000000000000000000081526004018080602001828103825260198152602001807f456d657267656e63792073746f70206973206163746976652e0000000000000081525060200191505060405180910390fd5b6000600b541415610d29576040517f08c379a000000000000000000000000000000000000000000000000000000000815260040180806020018281038252601d8152602001807f4d7573742068617665206163746976652066756e6472616973696e672e00000081525060200191505060405180910390fd5b60011515600360009054906101000a900460ff16151514610d95576040517f08c379a00000000000000000000000000000000000000000000000000000000081526004018080602001828103825260218152602001806119866021913960400191505060405180910390fd5b60001515600360019054906101000a900460ff16151514610e1e576040517f08c379a00000000000000000000000000000000000000000000000000000000081526004018080602001828103825260208152602001807f446f6e6174696f6e206c696d697420686173206265656e20726561636865642e81525060200191505060405180910390fd5b6000809054906101000a900473ffffffffffffffffffffffffffffffffffffffff1673ffffffffffffffffffffffffffffffffffffffff163373ffffffffffffffffffffffffffffffffffffffff161415610ee1576040517f08c379a000000000000000000000000000000000000000000000000000000000815260040180806020018281038252601e8152602001807f4f776e65722063616e6e6f742062652061207061727469636970616e742e000081525060200191505060405180910390fd5b600160009054906101000a900473ffffffffffffffffffffffffffffffffffffffff1673ffffffffffffffffffffffffffffffffffffffff163373ffffffffffffffffffffffffffffffffffffffff161415610f88576040517f08c379a00000000000000000000000000000000000000000000000000000000081526004018080602001828103825260248152602001806118d66024913960400191505060405180910390fd5b610fda34600260003373ffffffffffffffffffffffffffffffffffffffff1673ffffffffffffffffffffffffffffffffffffffff168152602001908152602001600020546115d890919063ffffffff16565b600260003373ffffffffffffffffffffffffffffffffffffffff1673ffffffffffffffffffffffffffffffffffffffff16815260200190815260200160002081905550611032346007546115d890919063ffffffff16565b6007819055503073ffffffffffffffffffffffffffffffffffffffff1631600a81905550600b5442116110da57600654600754106110b9576001600360016101000a81548160ff0219169083151502179055506007546008819055503073ffffffffffffffffffffffffffffffffffffffff16316009819055506110b4611130565b6110d5565b6000600360016101000a81548160ff0219169083151502179055505b61112d565b6000600b819055506001600360016101000a81548160ff0219169083151502179055506007546008819055503073ffffffffffffffffffffffffffffffffffffffff163160098190555061112c611130565b5b90565b60001515600360029054906101000a900460ff161515146111b9576040517f08c379a00000000000000000000000000000000000000000000000000000000081526004018080602001828103825260198152602001807f456d657267656e63792073746f70206973206163746976652e0000000000000081525060200191505060405180910390fd5b60011515600360019054906101000a900460ff16151514611242576040517f08c379a000000000000000000000000000000000000000000000000000000000815260040180806020018281038252601f8152602001807f486173206e6f74207265616368656420646f6e6174696f6e206c696d69742e0081525060200191505060405180910390fd5b6003809054906101000a900460ff161561125b57600080fd5b60016003806101000a81548160ff02191690831515021790555061128b600a60075461158e90919063ffffffff16565b600e819055506112a8600e5460075461166090919063ffffffff16565b600d819055506112c5600c54600d546115d890919063ffffffff16565b600d81905550600160009054906101000a900473ffffffffffffffffffffffffffffffffffffffff1673ffffffffffffffffffffffffffffffffffffffff166108fc600d549081150290604051600060405180830381858888f19350505050158015611335573d6000803e3d6000fd5b506000809054906101000a900473ffffffffffffffffffffffffffffffffffffffff1673ffffffffffffffffffffffffffffffffffffffff166108fc600e549081150290604051600060405180830381858888f1935050505015801561139f573d6000803e3d6000fd5b503073ffffffffffffffffffffffffffffffffffffffff1631600a8190555060006003806101000a81548160ff0219169083151502179055506000600360006101000a81548160ff021916908315150217905550600060078190555060006006819055506000600d819055506000600e819055506000600360016101000a81548160ff0219169083151502179055506000600160006101000a81548173ffffffffffffffffffffffffffffffffffffffff021916908373ffffffffffffffffffffffffffffffffffffffff160217905550565b6000809054906101000a900473ffffffffffffffffffffffffffffffffffffffff1673ffffffffffffffffffffffffffffffffffffffff163373ffffffffffffffffffffffffffffffffffffffff16146114cb57600080fd5b60011515600360029054906101000a900460ff16151514611554576040517f08c379a000000000000000000000000000000000000000000000000000000000815260040180806020018281038252601d8152602001807f456d657267656e63792073746f70206973206e6f74206163746976652e00000081525060200191505060405180910390fd5b6000809054906101000a900473ffffffffffffffffffffffffffffffffffffffff1673ffffffffffffffffffffffffffffffffffffffff16ff5b60006115d083836040518060400160405280601a81526020017f536166654d6174683a206469766973696f6e206279207a65726f0000000000008152506116aa565b905092915050565b600080828401905083811015611656576040517f08c379a000000000000000000000000000000000000000000000000000000000815260040180806020018281038252601b8152602001807f536166654d6174683a206164646974696f6e206f766572666c6f77000000000081525060200191505060405180910390fd5b8091505092915050565b60006116a283836040518060400160405280601e81526020017f536166654d6174683a207375627472616374696f6e206f766572666c6f770000815250611770565b905092915050565b60008083118290611756576040517f08c379a00000000000000000000000000000000000000000000000000000000081526004018080602001828103825283818151815260200191508051906020019080838360005b8381101561171b578082015181840152602081019050611700565b50505050905090810190601f1680156117485780820380516001836020036101000a031916815260200191505b509250505060405180910390fd5b50600083858161176257fe5b049050809150509392505050565b600083831115829061181d576040517f08c379a00000000000000000000000000000000000000000000000000000000081526004018080602001828103825283818151815260200191508051906020019080838360005b838110156117e25780820151818401526020810190506117c7565b50505050905090810190601f16801561180f5780820380516001836020036101000a031916815260200191505b509250505060405180910390fd5b5060008385039050809150509392505050565b828054600181600116156101000203166002900490600052602060002090601f016020900481019282601f1061187157805160ff191683800117855561189f565b8280016001018555821561189f579182015b8281111561189e578251825591602001919060010190611883565b5b5090506118ac91906118b0565b5090565b6118d291905b808211156118ce5760008160009055506001016118b6565b5090565b9056fe42656e65666963696172792063616e6e6f742062652061207061727469636970616e742e457363726f7720616d6f756e74206d7573742062652067726561746572207468616e20313025206f662074686520616d6f756e7420746f206265207261697365642e456d657267656e6379206369726375697420627265616b657220697320414354495645456d657267656e6379206369726375697420627265616b6572206973204e4f542041435449564542656e656669636961727920686173206e6f74206265656e20646566696e65642e457363726f7720616d6f756e74206d757374206265206c657373207468616e2074686520616d6f756e7420746f206265207261697365642e42656e65666963696172792068617320616c7265616479206265656e2073657475702e446f6e6174696f6e206c696d6974206d7573742062652067726561746572207468616e207a65726f2ea265627a7a723158206bb53a80b3e577adc65e865eb5c3f830090823bd4d7a82f5326a09efbc712e1164736f6c634300050c0032456d657267656e6379206369726375697420627265616b6572206973204e4f5420414354495645",
  "source": "pragma solidity ^0.5.0;\r\n\r\n// Import key libraries for Ownable and SafeMath\r\n// import \"../installed_contracts/zeppelin/contracts/math/SafeMath.sol\";\r\n// import \"installed_contracts/zeppelin/contracts/ownership/Ownable.sol\";\r\n\r\n/**\r\n * @dev Wrappers over Solidity's arithmetic operations with added overflow\r\n * checks.\r\n *\r\n * Arithmetic operations in Solidity wrap on overflow. This can easily result\r\n * in bugs, because programmers usually assume that an overflow raises an\r\n * error, which is the standard behavior in high level programming languages.\r\n * `SafeMath` restores this intuition by reverting the transaction when an\r\n * operation overflows.\r\n *\r\n * Using this library instead of the unchecked operations eliminates an entire\r\n * class of bugs, so it's recommended to use it always.\r\n */\r\nlibrary SafeMath {\r\n    /**\r\n     * @dev Returns the addition of two unsigned integers, reverting on\r\n     * overflow.\r\n     *\r\n     * Counterpart to Solidity's `+` operator.\r\n     *\r\n     * Requirements:\r\n     * - Addition cannot overflow.\r\n     */\r\n    function add(uint256 a, uint256 b) internal pure returns (uint256) {\r\n        uint256 c = a + b;\r\n        require(c >= a, \"SafeMath: addition overflow\");\r\n\r\n        return c;\r\n    }\r\n\r\n    /**\r\n     * @dev Returns the subtraction of two unsigned integers, reverting on\r\n     * overflow (when the result is negative).\r\n     *\r\n     * Counterpart to Solidity's `-` operator.\r\n     *\r\n     * Requirements:\r\n     * - Subtraction cannot overflow.\r\n     */\r\n    function sub(uint256 a, uint256 b) internal pure returns (uint256) {\r\n        return sub(a, b, \"SafeMath: subtraction overflow\");\r\n    }\r\n\r\n    /**\r\n     * @dev Returns the subtraction of two unsigned integers, reverting with custom message on\r\n     * overflow (when the result is negative).\r\n     *\r\n     * Counterpart to Solidity's `-` operator.\r\n     *\r\n     * Requirements:\r\n     * - Subtraction cannot overflow.\r\n     *\r\n     * _Available since v2.4.0._\r\n     */\r\n    function sub(uint256 a, uint256 b, string memory errorMessage) internal pure returns (uint256) {\r\n        require(b <= a, errorMessage);\r\n        uint256 c = a - b;\r\n\r\n        return c;\r\n    }\r\n\r\n    /**\r\n     * @dev Returns the multiplication of two unsigned integers, reverting on\r\n     * overflow.\r\n     *\r\n     * Counterpart to Solidity's `*` operator.\r\n     *\r\n     * Requirements:\r\n     * - Multiplication cannot overflow.\r\n     */\r\n    function mul(uint256 a, uint256 b) internal pure returns (uint256) {\r\n        // Gas optimization: this is cheaper than requiring 'a' not being zero, but the\r\n        // benefit is lost if 'b' is also tested.\r\n        // See: https://github.com/OpenZeppelin/openzeppelin-contracts/pull/522\r\n        if (a == 0) {\r\n            return 0;\r\n        }\r\n\r\n        uint256 c = a * b;\r\n        require(c / a == b, \"SafeMath: multiplication overflow\");\r\n\r\n        return c;\r\n    }\r\n\r\n    /**\r\n     * @dev Returns the integer division of two unsigned integers. Reverts on\r\n     * division by zero. The result is rounded towards zero.\r\n     *\r\n     * Counterpart to Solidity's `/` operator. Note: this function uses a\r\n     * `revert` opcode (which leaves remaining gas untouched) while Solidity\r\n     * uses an invalid opcode to revert (consuming all remaining gas).\r\n     *\r\n     * Requirements:\r\n     * - The divisor cannot be zero.\r\n     */\r\n    function div(uint256 a, uint256 b) internal pure returns (uint256) {\r\n        return div(a, b, \"SafeMath: division by zero\");\r\n    }\r\n\r\n    /**\r\n     * @dev Returns the integer division of two unsigned integers. Reverts with custom message on\r\n     * division by zero. The result is rounded towards zero.\r\n     *\r\n     * Counterpart to Solidity's `/` operator. Note: this function uses a\r\n     * `revert` opcode (which leaves remaining gas untouched) while Solidity\r\n     * uses an invalid opcode to revert (consuming all remaining gas).\r\n     *\r\n     * Requirements:\r\n     * - The divisor cannot be zero.\r\n     *\r\n     * _Available since v2.4.0._\r\n     */\r\n    function div(uint256 a, uint256 b, string memory errorMessage) internal pure returns (uint256) {\r\n        // Solidity only automatically asserts when dividing by 0\r\n        require(b > 0, errorMessage);\r\n        uint256 c = a / b;\r\n        // assert(a == b * c + a % b); // There is no case in which this doesn't hold\r\n\r\n        return c;\r\n    }\r\n\r\n    /**\r\n     * @dev Returns the remainder of dividing two unsigned integers. (unsigned integer modulo),\r\n     * Reverts when dividing by zero.\r\n     *\r\n     * Counterpart to Solidity's `%` operator. This function uses a `revert`\r\n     * opcode (which leaves remaining gas untouched) while Solidity uses an\r\n     * invalid opcode to revert (consuming all remaining gas).\r\n     *\r\n     * Requirements:\r\n     * - The divisor cannot be zero.\r\n     */\r\n    function mod(uint256 a, uint256 b) internal pure returns (uint256) {\r\n        return mod(a, b, \"SafeMath: modulo by zero\");\r\n    }\r\n\r\n    /**\r\n     * @dev Returns the remainder of dividing two unsigned integers. (unsigned integer modulo),\r\n     * Reverts with custom message when dividing by zero.\r\n     *\r\n     * Counterpart to Solidity's `%` operator. This function uses a `revert`\r\n     * opcode (which leaves remaining gas untouched) while Solidity uses an\r\n     * invalid opcode to revert (consuming all remaining gas).\r\n     *\r\n     * Requirements:\r\n     * - The divisor cannot be zero.\r\n     *\r\n     * _Available since v2.4.0._\r\n     */\r\n    function mod(uint256 a, uint256 b, string memory errorMessage) internal pure returns (uint256) {\r\n        require(b != 0, errorMessage);\r\n        return a % b;\r\n    }\r\n}\r\n\r\n// This contract setup the owner.\r\n// This contract provides inheritance to the main contract.\r\ncontract FromParent {\r\n    address payable public owner;\r\n    address payable public beneficiary = address(0);    // Set beneficiary to null\r\n\r\n    constructor() public { // Set at start of deployment\r\n        owner = msg.sender;             // Set the owner of contract\r\n    }\r\n}\r\n\r\n// This is the Donations contract\r\n// The contract does the following:\r\n// 1. Initilizes the contract with a donation limit to be collected and a beneficiary. Similar to gofund me.\r\n// 2. Users donate to the contract. Donation must be at least 1 ether.\r\n// 3. Track donations until the donation limit has been reached, or terminate if at least 10% has been collected\r\n// 4. Send 90% of the donations to the beneficiary\r\n// 5. Owner gets 10% of the contract dopnation\r\n\r\n// This contract inherits from the FromParent contract.\r\ncontract Donations is FromParent {\r\n    using SafeMath for uint;\r\n\r\n    mapping (address => uint) private balances;     // Track the donate amount from the user\r\n    \r\n    bool private hasBeneficiary = false;        // Set no beneficiary selected\r\n\tbool private isAtLimit = false;       // Set default for reaching donation limit flag\r\n    bool private stopped = false;       // Set default circuit breaker/ emergency stop flag\r\n\tbool private lock = false;           // Safeguard against reentrancy\r\n\t\r\n    string public emergencyTxt = 'Emergency circuit breaker is NOT ACTIVE';     // Track emergency circuit breaker status\r\n    string public lockTxt = 'Lock is NOT ACTIVE';   // Track lock status\r\n    \r\n    uint public targetAmt;         // Track donation limit to be sought\r\n\tuint public donationAmt;        // Track current donation so far.\r\n    uint public oldDonationAmt;    // Track donation amount before withdraw payout\r\n    uint public oldBalance;         // Track the balance before withdraw payout\r\n    uint public newBalance;         // Track the balance after withdraw payout\r\n\r\n    uint private round_expired;     // Track time to expire round\r\n\tuint private escrowAmt;         // Track the escrow amount from the beneficiary\r\n\tuint private beneficiaryAmt;    // Track the beneficiary amount from the total donations\r\n\tuint private ownerAmt;          // Track the owner amount from the total donations\r\n\tuint private duration;          // Set the valid duration for a round of fundraising\r\n\r\n    // Setup modifier for only owner \r\n    modifier isAdmin() {\r\n        require(msg.sender == owner);\r\n        _;\r\n    }\r\n\r\n    // Setup modifier for Beneficiary\r\n    modifier hasNoBeneficiary() {\r\n        require(hasBeneficiary == false, 'Beneficiary has already been setup.');\r\n        _;\r\n    }\r\n\r\n    // Setup modifier for circuit breaker / Emergency stop flag to control control\r\n    modifier notInEmergency {\r\n        require(stopped == false, 'Emergency stop is active.');\r\n        _;\r\n    }\r\n    \r\n    // Setup modifier for circuit breaker / Emergency stop flag to control control\r\n    modifier isInEmergency {\r\n        require(stopped == true, 'Emergency stop is not active.');\r\n        _;\r\n    }\r\n    \r\n    // Returns the address of the Beneficiary\r\n    event LogSetBeneficiary(\r\n        address accountAddress\r\n    );\r\n\r\n    event LogRefresh(\r\n        bool refresh\r\n    );\r\n\r\n   // The constructor set up default values for the contract\r\n    constructor() public {\r\n\t\ttargetAmt = 0;                      // Set donaiion target limit to zero\r\n\t\tdonationAmt  = 0;\t\t\t\t    // Set donation to zero\r\n\t\tisAtLimit = false;                  // Set donation flag as false\r\n\t\tlock = false;                       // Set default lock state as false\r\n\t\tduration = 604800;                  // Set default fundraising time duration in 7 days in seconds (604800) from now\r\n    }\r\n\r\n    // Setup fallback to protect contract\r\n    function() external payable {\r\n\t\trevert();\r\n\t}\r\n\r\n    // This is a data view function and can be removed at completion.\r\n    // function showIntValues() public view returns (uint, uint, uint, bool, bool, bool, bool) {\r\n    //    return (address(this).balance, targetAmt, donationAmt, isAtLimit, lock, stopped, hasBeneficiary);\r\n    // }\r\n\r\n    // This function set the donation amount and the beneficiary\r\n    // These actions can only be define by the owner\r\n    // The beneficiary must commit to pay at least 10% of the proposed amount to be raised before the conbtract can accept the funding request\r\n    function setDonationAndBeneficiary(uint _targetAmt) hasNoBeneficiary notInEmergency public payable returns (bool) {\r\n        require(msg.sender != owner, 'Owner cannot be beneficiary.');   // Owner cannot be a beneficiary\r\n        require(_targetAmt > 0, 'Donation limit must be greater than zero.');\r\n        require(msg.value > _targetAmt.div(10), 'Escrow amount must be greater than 10% of the amount to be raised.');\r\n        require(msg.value < _targetAmt, 'Escrow amount must be less than the amount to be raised.');\r\n        \r\n        hasBeneficiary = true;          // Accepts beneficiary for the contract and prevent recalling of the function\r\n        escrowAmt = msg.value;          // Seup the escrow amount      \r\n        targetAmt = _targetAmt;     // Setup the donation limit\r\n        beneficiary = msg.sender;       // Setup the beneficiary\r\n        oldDonationAmt = 0;             // Set to zero\r\n        oldBalance = 0;             // Set to zero\r\n        newBalance = address(this).balance;         // Update current contract balance\r\n        round_expired = now;             // set round expiration to start with current time.\r\n        round_expired = round_expired.add(duration);             // Add Duration to round expiration time.\r\n    }\r\n\r\n    // This function accepts donations from Users\r\n    // The function also checks if the fundraising has expired and limit has not been reached\r\n    function sendDonations() notInEmergency public payable returns (bool) {\r\n        require(round_expired != 0, 'Must have active fundraising.');        // Check if active fundraising exists\r\n        require(hasBeneficiary == true, 'Beneficiary has not been defined.');  // Donation must have a beneficiary\r\n        require(isAtLimit == false, 'Donation limit has been reached.');    // Limit has not been reached\r\n        require(msg.sender != owner, 'Owner cannot be a participant.');   // Owner cannot be a participant\r\n        require(msg.sender != beneficiary, 'Beneficiary cannot be a participant.');   // Beneficiary cannot be a participant\r\n\t\t\r\n        balances[msg.sender] = balances[msg.sender].add(msg.value);      // Track the donated amt from the user.\r\n        donationAmt = donationAmt.add(msg.value);  // Track the current donations\r\n        newBalance = address(this).balance;         // Update current contract balance\r\n        \r\n        // Check if fundraising time has not reached limit\r\n\t\tif (now <= round_expired) {\r\n            // Check if donation limit has been reached\r\n    \t\tif (donationAmt >= targetAmt) {\r\n        \t\t    isAtLimit = true;     // Set donation flag as having reach the target\r\n                    oldDonationAmt = donationAmt;   // Set the old donation amount - Use for testing\r\n                    oldBalance = address(this).balance;  // Set the before withdraw balance - Use for testing\r\n        \t\t    withdrawDonations();  // Call withdraw to faciliate payments.\r\n        \t} else {\r\n        \t\t    isAtLimit = false;     // Set donation flag as not having reach the target\r\n        \t}\r\n\t\t} else {\r\n\t\t    // Time has expired and limit has not been reached.\r\n            // owner.transfer(address(this).balance);      // time has expired, end fundraising and transfer escrow to owner.\r\n            round_expired = 0;           // Clear time\r\n            isAtLimit = true;     // Forced Set donation flag as having reach the target\r\n            oldDonationAmt = donationAmt;   // Set the old donation amount - Use for testing\r\n            oldBalance = address(this).balance;  // Set the before withdraw balance - Use for testing\r\n            withdrawDonations();  // Call withdraw to faciliate payments.\r\n\t\t}\r\n    }\r\n\r\n    // This function withdraws for the beneficiary and owner\r\n    // Set global lock to prevent reentrancy\r\n    // Compute payments to beneficiary and owner\r\n    // Send to beneficiary and owner\r\n    // implicitly set the transfer to prevent a reentrancy attack\r\n    // Set payout flag to prevent reentrancy.    \r\n    function withdrawDonations() notInEmergency public payable {\r\n        require (isAtLimit == true, 'Has not reached donation limit.');     // must be at donation limit\r\n        require(!lock);     // Must not already in locked state - This uses a MUTEX lock\r\n        lock = true;        // Force locked state to prevent reenterancy\r\n    \r\n        ownerAmt = donationAmt.div(10);                     // Calculate the owner portion => 10%\r\n        beneficiaryAmt = donationAmt.sub(ownerAmt);         // Calculate the beneficiary payment => 90%\r\n        beneficiaryAmt = beneficiaryAmt.add(escrowAmt);     // Calculate the beneficiary payment adjusted for escrow payment\r\n        \r\n        beneficiary.transfer(beneficiaryAmt);       // Transfer the beneficiary amount to beneficiary\r\n        owner.transfer(ownerAmt);                   // Transfer the owner amount to owner\r\n        newBalance = address(this).balance;  // Set the after withddraw balance - Use for testing\r\n        \r\n        lock = false;               // Clear Locked state\r\n        hasBeneficiary = false;     // Wait for new beneficiary        \r\n        donationAmt = 0;            // Clear to zero and waits for new beneficiary\r\n        targetAmt = 0;              // Clear to zero and waits for new beneficiary\r\n        beneficiaryAmt = 0;         // Set to zero\r\n        ownerAmt = 0;               // Set to zero\r\n        isAtLimit = false;          // Set to false\r\n        beneficiary = address(0);   // Clear beneficiary\r\n    } \r\n\r\n    // Add function that restricts stopping a contract to be based on another action\r\n    function toggleContractActive() isAdmin public {\r\n        stopped = !stopped;     // Set the cirbuit breaker switch\r\n        if (stopped) {\r\n            emergencyTxt = 'Emergency circuit breaker is ACTIVE';\r\n        } else {\r\n            emergencyTxt = 'Emergency circuit breaker is NOT ACTIVE';\r\n        }\r\n    }\r\n\r\n    // This function unlocks the lock for withdraws, just in case the contract is bugged\r\n    function unlockLock() isAdmin isInEmergency public payable {\r\n        lock = !lock;            // Set the lock\r\n        if (lock) {\r\n            lockTxt = 'Lock is ACTIVE';\r\n        } else {\r\n            lockTxt = 'Lock is NOT ACTIVE';\r\n        }        \r\n    }\r\n\r\n    // This function ends collections and send contract value to owner\r\n    function endDonations() isAdmin isInEmergency public payable {\r\n        selfdestruct(owner);    // End contract and send any remaining funds to owner\r\n    }\r\n\r\n}\r\n",
  "sourcePath": "C:/Users/tuanp/ConsensysDev/Donations/contracts/Donations.sol",
  "compiler": {
    "name": "solc",
    "version": "0.5.12+commit.7709ece9.Emscripten.clang"
  },
  "schemaVersion": "3.0.19",
  "updatedAt": "2020-01-12T02:10:06.701Z",
  "networkType": "ethereum",
  "devdoc": {
    "methods": {}
  },
  "userdoc": {
    "methods": {}
  }
}