{
  "contractName": "Donations",
  "abi": [
    {
      "inputs": [],
      "payable": false,
      "stateMutability": "nonpayable",
      "type": "constructor"
    },
    {
      "anonymous": false,
      "inputs": [
        {
          "indexed": false,
          "internalType": "bool",
          "name": "refresh",
          "type": "bool"
        }
      ],
      "name": "LogRefresh",
      "type": "event"
    },
    {
      "anonymous": false,
      "inputs": [
        {
          "indexed": false,
          "internalType": "address",
          "name": "accountAddress",
          "type": "address"
        }
      ],
      "name": "LogSetBeneficiary",
      "type": "event"
    },
    {
      "payable": true,
      "stateMutability": "payable",
      "type": "fallback"
    },
    {
      "constant": true,
      "inputs": [],
      "name": "beneficiary",
      "outputs": [
        {
          "internalType": "address payable",
          "name": "",
          "type": "address"
        }
      ],
      "payable": false,
      "stateMutability": "view",
      "type": "function"
    },
    {
      "constant": true,
      "inputs": [],
      "name": "donationAmt",
      "outputs": [
        {
          "internalType": "uint256",
          "name": "",
          "type": "uint256"
        }
      ],
      "payable": false,
      "stateMutability": "view",
      "type": "function"
    },
    {
      "constant": true,
      "inputs": [],
      "name": "emergencyTxt",
      "outputs": [
        {
          "internalType": "string",
          "name": "",
          "type": "string"
        }
      ],
      "payable": false,
      "stateMutability": "view",
      "type": "function"
    },
    {
      "constant": true,
      "inputs": [],
      "name": "lockTxt",
      "outputs": [
        {
          "internalType": "string",
          "name": "",
          "type": "string"
        }
      ],
      "payable": false,
      "stateMutability": "view",
      "type": "function"
    },
    {
      "constant": true,
      "inputs": [],
      "name": "newBalance",
      "outputs": [
        {
          "internalType": "uint256",
          "name": "",
          "type": "uint256"
        }
      ],
      "payable": false,
      "stateMutability": "view",
      "type": "function"
    },
    {
      "constant": true,
      "inputs": [],
      "name": "oldBalance",
      "outputs": [
        {
          "internalType": "uint256",
          "name": "",
          "type": "uint256"
        }
      ],
      "payable": false,
      "stateMutability": "view",
      "type": "function"
    },
    {
      "constant": true,
      "inputs": [],
      "name": "oldDonationAmt",
      "outputs": [
        {
          "internalType": "uint256",
          "name": "",
          "type": "uint256"
        }
      ],
      "payable": false,
      "stateMutability": "view",
      "type": "function"
    },
    {
      "constant": true,
      "inputs": [],
      "name": "owner",
      "outputs": [
        {
          "internalType": "address payable",
          "name": "",
          "type": "address"
        }
      ],
      "payable": false,
      "stateMutability": "view",
      "type": "function"
    },
    {
      "constant": true,
      "inputs": [],
      "name": "targetAmt",
      "outputs": [
        {
          "internalType": "uint256",
          "name": "",
          "type": "uint256"
        }
      ],
      "payable": false,
      "stateMutability": "view",
      "type": "function"
    },
    {
      "constant": false,
      "inputs": [
        {
          "internalType": "uint256",
          "name": "_targetAmt",
          "type": "uint256"
        }
      ],
      "name": "setDonationAndBeneficiary",
      "outputs": [
        {
          "internalType": "bool",
          "name": "",
          "type": "bool"
        }
      ],
      "payable": true,
      "stateMutability": "payable",
      "type": "function"
    },
    {
      "constant": false,
      "inputs": [],
      "name": "setTestBeneficiary",
      "outputs": [
        {
          "internalType": "bool",
          "name": "",
          "type": "bool"
        }
      ],
      "payable": true,
      "stateMutability": "payable",
      "type": "function"
    },
    {
      "constant": false,
      "inputs": [],
      "name": "sendDonations",
      "outputs": [
        {
          "internalType": "bool",
          "name": "",
          "type": "bool"
        }
      ],
      "payable": true,
      "stateMutability": "payable",
      "type": "function"
    },
    {
      "constant": false,
      "inputs": [],
      "name": "withdrawDonations",
      "outputs": [],
      "payable": true,
      "stateMutability": "payable",
      "type": "function"
    },
    {
      "constant": false,
      "inputs": [],
      "name": "toggleContractActive",
      "outputs": [],
      "payable": false,
      "stateMutability": "nonpayable",
      "type": "function"
    },
    {
      "constant": false,
      "inputs": [],
      "name": "unlockLock",
      "outputs": [],
      "payable": true,
      "stateMutability": "payable",
      "type": "function"
    },
    {
      "constant": false,
      "inputs": [],
      "name": "endDonations",
      "outputs": [],
      "payable": true,
      "stateMutability": "payable",
      "type": "function"
    }
  ],
  "bytecode": "0x60806040526000600160006101000a81548173ffffffffffffffffffffffffffffffffffffffff021916908373ffffffffffffffffffffffffffffffffffffffff1602179055506000600360006101000a81548160ff0219169083151502179055506000600360016101000a81548160ff0219169083151502179055506000600360026101000a81548160ff02191690831515021790555060006003806101000a81548160ff02191690831515021790555060405180606001604052806027815260200162001cbb6027913960049080519060200190620000e2929190620001ca565b506040518060400160405280601281526020017f4c6f636b206973204e4f542041435449564500000000000000000000000000008152506005908051906020019062000130929190620001ca565b503480156200013e57600080fd5b50336000806101000a81548173ffffffffffffffffffffffffffffffffffffffff021916908373ffffffffffffffffffffffffffffffffffffffff160217905550600060068190555060006007819055506000600360016101000a81548160ff02191690831515021790555060006003806101000a81548160ff02191690831515021790555062000279565b828054600181600116156101000203166002900490600052602060002090601f016020900481019282601f106200020d57805160ff19168380011785556200023e565b828001600101855582156200023e579182015b828111156200023d57825182559160200191906001019062000220565b5b5090506200024d919062000251565b5090565b6200027691905b808211156200027257600081600090555060010162000258565b5090565b90565b611a3280620002896000396000f3fe6080604052600436106100f35760003560e01c806377cabbb91161008a578063bd855b3511610059578063bd855b35146103e0578063cad65b7014610426578063ce1b088a14610448578063e9433ab614610452576100f3565b806377cabbb9146103295780638576b2e1146103545780638da5cb5b1461035e578063bc464ba6146103b5576100f3565b806338af3eed116100c657806338af3eed146101ec5780633d1237721461024357806345bc73f71461026e5780634851cf2414610299576100f3565b80630a80cf34146100f85780631385d24c146101885780631dc822851461019f578063225f5af5146101ca575b600080fd5b34801561010457600080fd5b5061010d61045c565b6040518080602001828103825283818151815260200191508051906020019080838360005b8381101561014d578082015181840152602081019050610132565b50505050905090810190601f16801561017a5780820380516001836020036101000a031916815260200191505b509250505060405180910390f35b34801561019457600080fd5b5061019d6104fa565b005b3480156101ab57600080fd5b506101b46105f8565b6040518082815260200191505060405180910390f35b6101d26105fe565b604051808215151515815260200191505060405180910390f35b3480156101f857600080fd5b5061020161069e565b604051808273ffffffffffffffffffffffffffffffffffffffff1673ffffffffffffffffffffffffffffffffffffffff16815260200191505060405180910390f35b34801561024f57600080fd5b506102586106c4565b6040518082815260200191505060405180910390f35b34801561027a57600080fd5b506102836106ca565b6040518082815260200191505060405180910390f35b3480156102a557600080fd5b506102ae6106d0565b6040518080602001828103825283818151815260200191508051906020019080838360005b838110156102ee5780820151818401526020810190506102d3565b50505050905090810190601f16801561031b5780820380516001836020036101000a031916815260200191505b509250505060405180910390f35b34801561033557600080fd5b5061033e61076e565b6040518082815260200191505060405180910390f35b61035c610774565b005b34801561036a57600080fd5b50610373610932565b604051808273ffffffffffffffffffffffffffffffffffffffff1673ffffffffffffffffffffffffffffffffffffffff16815260200191505060405180910390f35b3480156103c157600080fd5b506103ca610957565b6040518082815260200191505060405180910390f35b61040c600480360360208110156103f657600080fd5b810190808035906020019092919050505061095d565b604051808215151515815260200191505060405180910390f35b61042e610ccf565b604051808215151515815260200191505060405180910390f35b610450611103565b005b61045a611445565b005b60058054600181600116156101000203166002900480601f0160208091040260200160405190810160405280929190818152602001828054600181600116156101000203166002900480156104f25780601f106104c7576101008083540402835291602001916104f2565b820191906000526020600020905b8154815290600101906020018083116104d557829003601f168201915b505050505081565b6000809054906101000a900473ffffffffffffffffffffffffffffffffffffffff1673ffffffffffffffffffffffffffffffffffffffff163373ffffffffffffffffffffffffffffffffffffffff161461055357600080fd5b600360029054906101000a900460ff1615600360026101000a81548160ff021916908315150217905550600360029054906101000a900460ff16156105c65760405180606001604052806023815260200161190f60239139600490805190602001906105c0929190611803565b506105f6565b60405180606001604052806027815260200161193260279139600490805190602001906105f4929190611803565b505b565b60095481565b600033600160006101000a81548173ffffffffffffffffffffffffffffffffffffffff021916908373ffffffffffffffffffffffffffffffffffffffff1602179055503073ffffffffffffffffffffffffffffffffffffffff1631600a819055507f334f7e0d888fe4a5e40f6b616305f516366880bdf53976e49e69067b2d8389d86001604051808215151515815260200191505060405180910390a190565b600160009054906101000a900473ffffffffffffffffffffffffffffffffffffffff1681565b60085481565b60065481565b60048054600181600116156101000203166002900480601f0160208091040260200160405190810160405280929190818152602001828054600181600116156101000203166002900480156107665780601f1061073b57610100808354040283529160200191610766565b820191906000526020600020905b81548152906001019060200180831161074957829003601f168201915b505050505081565b60075481565b6000809054906101000a900473ffffffffffffffffffffffffffffffffffffffff1673ffffffffffffffffffffffffffffffffffffffff163373ffffffffffffffffffffffffffffffffffffffff16146107cd57600080fd5b60011515600360029054906101000a900460ff16151514610856576040517f08c379a000000000000000000000000000000000000000000000000000000000815260040180806020018281038252601d8152602001807f456d657267656e63792073746f70206973206e6f74206163746976652e00000081525060200191505060405180910390fd5b6003809054906101000a900460ff16156003806101000a81548160ff0219169083151502179055506003809054906101000a900460ff16156108e3576040518060400160405280600e81526020017f4c6f636b20697320414354495645000000000000000000000000000000000000815250600590805190602001906108dd929190611803565b50610930565b6040518060400160405280601281526020017f4c6f636b206973204e4f542041435449564500000000000000000000000000008152506005908051906020019061092e929190611803565b505b565b6000809054906101000a900473ffffffffffffffffffffffffffffffffffffffff1681565b600a5481565b6000801515600360009054906101000a900460ff161515146109ca576040517f08c379a00000000000000000000000000000000000000000000000000000000081526004018080602001828103825260238152602001806119b26023913960400191505060405180910390fd5b60001515600360029054906101000a900460ff16151514610a53576040517f08c379a00000000000000000000000000000000000000000000000000000000081526004018080602001828103825260198152602001807f456d657267656e63792073746f70206973206163746976652e0000000000000081525060200191505060405180910390fd5b6000809054906101000a900473ffffffffffffffffffffffffffffffffffffffff1673ffffffffffffffffffffffffffffffffffffffff163373ffffffffffffffffffffffffffffffffffffffff161415610b16576040517f08c379a000000000000000000000000000000000000000000000000000000000815260040180806020018281038252601c8152602001807f4f776e65722063616e6e6f742062652062656e65666963696172792e0000000081525060200191505060405180910390fd5b60008211610b6f576040517f08c379a00000000000000000000000000000000000000000000000000000000081526004018080602001828103825260298152602001806119d56029913960400191505060405180910390fd5b610b83600a8361156190919063ffffffff16565b3411610bda576040517f08c379a00000000000000000000000000000000000000000000000000000000081526004018080602001828103825260428152602001806118cd6042913960600191505060405180910390fd5b813410610c32576040517f08c379a000000000000000000000000000000000000000000000000000000000815260040180806020018281038252603881526020018061197a6038913960400191505060405180910390fd5b6001600360006101000a81548160ff02191690831515021790555034600b819055508160068190555033600160006101000a81548173ffffffffffffffffffffffffffffffffffffffff021916908373ffffffffffffffffffffffffffffffffffffffff160217905550600060088190555060006009819055503073ffffffffffffffffffffffffffffffffffffffff1631600a81905550919050565b6000801515600360029054906101000a900460ff16151514610d59576040517f08c379a00000000000000000000000000000000000000000000000000000000081526004018080602001828103825260198152602001807f456d657267656e63792073746f70206973206163746976652e0000000000000081525060200191505060405180910390fd5b60011515600360009054906101000a900460ff16151514610dc5576040517f08c379a00000000000000000000000000000000000000000000000000000000081526004018080602001828103825260218152602001806119596021913960400191505060405180910390fd5b60001515600360019054906101000a900460ff16151514610e4e576040517f08c379a00000000000000000000000000000000000000000000000000000000081526004018080602001828103825260208152602001807f446f6e6174696f6e206c696d697420686173206265656e20726561636865642e81525060200191505060405180910390fd5b6000809054906101000a900473ffffffffffffffffffffffffffffffffffffffff1673ffffffffffffffffffffffffffffffffffffffff163373ffffffffffffffffffffffffffffffffffffffff161415610f11576040517f08c379a000000000000000000000000000000000000000000000000000000000815260040180806020018281038252601e8152602001807f4f776e65722063616e6e6f742062652061207061727469636970616e742e000081525060200191505060405180910390fd5b600160009054906101000a900473ffffffffffffffffffffffffffffffffffffffff1673ffffffffffffffffffffffffffffffffffffffff163373ffffffffffffffffffffffffffffffffffffffff161415610fb8576040517f08c379a00000000000000000000000000000000000000000000000000000000081526004018080602001828103825260248152602001806118a96024913960400191505060405180910390fd5b61100a34600260003373ffffffffffffffffffffffffffffffffffffffff1673ffffffffffffffffffffffffffffffffffffffff168152602001908152602001600020546115ab90919063ffffffff16565b600260003373ffffffffffffffffffffffffffffffffffffffff1673ffffffffffffffffffffffffffffffffffffffff16815260200190815260200160002081905550611062346007546115ab90919063ffffffff16565b6007819055503073ffffffffffffffffffffffffffffffffffffffff1631600a81905550600654600754106110e0576001600360016101000a81548160ff0219169083151502179055506007546008819055503073ffffffffffffffffffffffffffffffffffffffff16316009819055506110db611103565b6110fc565b6000600360016101000a81548160ff0219169083151502179055505b6001905090565b60001515600360029054906101000a900460ff1615151461118c576040517f08c379a00000000000000000000000000000000000000000000000000000000081526004018080602001828103825260198152602001807f456d657267656e63792073746f70206973206163746976652e0000000000000081525060200191505060405180910390fd5b60011515600360019054906101000a900460ff16151514611215576040517f08c379a000000000000000000000000000000000000000000000000000000000815260040180806020018281038252601f8152602001807f486173206e6f74207265616368656420646f6e6174696f6e206c696d69742e0081525060200191505060405180910390fd5b6003809054906101000a900460ff161561122e57600080fd5b60016003806101000a81548160ff02191690831515021790555061125e600a60075461156190919063ffffffff16565b600d8190555061127b600d5460075461163390919063ffffffff16565b600c81905550611298600b54600c546115ab90919063ffffffff16565b600c81905550600160009054906101000a900473ffffffffffffffffffffffffffffffffffffffff1673ffffffffffffffffffffffffffffffffffffffff166108fc600c549081150290604051600060405180830381858888f19350505050158015611308573d6000803e3d6000fd5b506000809054906101000a900473ffffffffffffffffffffffffffffffffffffffff1673ffffffffffffffffffffffffffffffffffffffff166108fc600d549081150290604051600060405180830381858888f19350505050158015611372573d6000803e3d6000fd5b503073ffffffffffffffffffffffffffffffffffffffff1631600a8190555060006003806101000a81548160ff0219169083151502179055506000600360006101000a81548160ff021916908315150217905550600060078190555060006006819055506000600c819055506000600d819055506000600360016101000a81548160ff0219169083151502179055506000600160006101000a81548173ffffffffffffffffffffffffffffffffffffffff021916908373ffffffffffffffffffffffffffffffffffffffff160217905550565b6000809054906101000a900473ffffffffffffffffffffffffffffffffffffffff1673ffffffffffffffffffffffffffffffffffffffff163373ffffffffffffffffffffffffffffffffffffffff161461149e57600080fd5b60011515600360029054906101000a900460ff16151514611527576040517f08c379a000000000000000000000000000000000000000000000000000000000815260040180806020018281038252601d8152602001807f456d657267656e63792073746f70206973206e6f74206163746976652e00000081525060200191505060405180910390fd5b6000809054906101000a900473ffffffffffffffffffffffffffffffffffffffff1673ffffffffffffffffffffffffffffffffffffffff16ff5b60006115a383836040518060400160405280601a81526020017f536166654d6174683a206469766973696f6e206279207a65726f00000000000081525061167d565b905092915050565b600080828401905083811015611629576040517f08c379a000000000000000000000000000000000000000000000000000000000815260040180806020018281038252601b8152602001807f536166654d6174683a206164646974696f6e206f766572666c6f77000000000081525060200191505060405180910390fd5b8091505092915050565b600061167583836040518060400160405280601e81526020017f536166654d6174683a207375627472616374696f6e206f766572666c6f770000815250611743565b905092915050565b60008083118290611729576040517f08c379a00000000000000000000000000000000000000000000000000000000081526004018080602001828103825283818151815260200191508051906020019080838360005b838110156116ee5780820151818401526020810190506116d3565b50505050905090810190601f16801561171b5780820380516001836020036101000a031916815260200191505b509250505060405180910390fd5b50600083858161173557fe5b049050809150509392505050565b60008383111582906117f0576040517f08c379a00000000000000000000000000000000000000000000000000000000081526004018080602001828103825283818151815260200191508051906020019080838360005b838110156117b557808201518184015260208101905061179a565b50505050905090810190601f1680156117e25780820380516001836020036101000a031916815260200191505b509250505060405180910390fd5b5060008385039050809150509392505050565b828054600181600116156101000203166002900490600052602060002090601f016020900481019282601f1061184457805160ff1916838001178555611872565b82800160010185558215611872579182015b82811115611871578251825591602001919060010190611856565b5b50905061187f9190611883565b5090565b6118a591905b808211156118a1576000816000905550600101611889565b5090565b9056fe42656e65666963696172792063616e6e6f742062652061207061727469636970616e742e457363726f7720616d6f756e74206d7573742062652067726561746572207468616e20313025206f662074686520616d6f756e7420746f206265207261697365642e456d657267656e6379206369726375697420627265616b657220697320414354495645456d657267656e6379206369726375697420627265616b6572206973204e4f542041435449564542656e656669636961727920686173206e6f74206265656e20646566696e65642e457363726f7720616d6f756e74206d757374206265206c657373207468616e2074686520616d6f756e7420746f206265207261697365642e42656e65666963696172792068617320616c7265616479206265656e2073657475702e446f6e6174696f6e206c696d6974206d7573742062652067726561746572207468616e207a65726f2ea265627a7a72315820f4f440da38505de3889c0e9f9a305d977ab35e17def037fd467481380f6f5ae864736f6c634300050c0032456d657267656e6379206369726375697420627265616b6572206973204e4f5420414354495645",
  "source": "pragma solidity ^0.5.0;\r\n\r\n// Import key libraries for Ownable and SafeMath\r\n// import \"../installed_contracts/zeppelin/contracts/math/SafeMath.sol\";\r\n// import \"installed_contracts/zeppelin/contracts/ownership/Ownable.sol\";\r\n\r\n/**\r\n * @dev Wrappers over Solidity's arithmetic operations with added overflow\r\n * checks.\r\n *\r\n * Arithmetic operations in Solidity wrap on overflow. This can easily result\r\n * in bugs, because programmers usually assume that an overflow raises an\r\n * error, which is the standard behavior in high level programming languages.\r\n * `SafeMath` restores this intuition by reverting the transaction when an\r\n * operation overflows.\r\n *\r\n * Using this library instead of the unchecked operations eliminates an entire\r\n * class of bugs, so it's recommended to use it always.\r\n */\r\nlibrary SafeMath {\r\n    /**\r\n     * @dev Returns the addition of two unsigned integers, reverting on\r\n     * overflow.\r\n     *\r\n     * Counterpart to Solidity's `+` operator.\r\n     *\r\n     * Requirements:\r\n     * - Addition cannot overflow.\r\n     */\r\n    function add(uint256 a, uint256 b) internal pure returns (uint256) {\r\n        uint256 c = a + b;\r\n        require(c >= a, \"SafeMath: addition overflow\");\r\n\r\n        return c;\r\n    }\r\n\r\n    /**\r\n     * @dev Returns the subtraction of two unsigned integers, reverting on\r\n     * overflow (when the result is negative).\r\n     *\r\n     * Counterpart to Solidity's `-` operator.\r\n     *\r\n     * Requirements:\r\n     * - Subtraction cannot overflow.\r\n     */\r\n    function sub(uint256 a, uint256 b) internal pure returns (uint256) {\r\n        return sub(a, b, \"SafeMath: subtraction overflow\");\r\n    }\r\n\r\n    /**\r\n     * @dev Returns the subtraction of two unsigned integers, reverting with custom message on\r\n     * overflow (when the result is negative).\r\n     *\r\n     * Counterpart to Solidity's `-` operator.\r\n     *\r\n     * Requirements:\r\n     * - Subtraction cannot overflow.\r\n     *\r\n     * _Available since v2.4.0._\r\n     */\r\n    function sub(uint256 a, uint256 b, string memory errorMessage) internal pure returns (uint256) {\r\n        require(b <= a, errorMessage);\r\n        uint256 c = a - b;\r\n\r\n        return c;\r\n    }\r\n\r\n    /**\r\n     * @dev Returns the multiplication of two unsigned integers, reverting on\r\n     * overflow.\r\n     *\r\n     * Counterpart to Solidity's `*` operator.\r\n     *\r\n     * Requirements:\r\n     * - Multiplication cannot overflow.\r\n     */\r\n    function mul(uint256 a, uint256 b) internal pure returns (uint256) {\r\n        // Gas optimization: this is cheaper than requiring 'a' not being zero, but the\r\n        // benefit is lost if 'b' is also tested.\r\n        // See: https://github.com/OpenZeppelin/openzeppelin-contracts/pull/522\r\n        if (a == 0) {\r\n            return 0;\r\n        }\r\n\r\n        uint256 c = a * b;\r\n        require(c / a == b, \"SafeMath: multiplication overflow\");\r\n\r\n        return c;\r\n    }\r\n\r\n    /**\r\n     * @dev Returns the integer division of two unsigned integers. Reverts on\r\n     * division by zero. The result is rounded towards zero.\r\n     *\r\n     * Counterpart to Solidity's `/` operator. Note: this function uses a\r\n     * `revert` opcode (which leaves remaining gas untouched) while Solidity\r\n     * uses an invalid opcode to revert (consuming all remaining gas).\r\n     *\r\n     * Requirements:\r\n     * - The divisor cannot be zero.\r\n     */\r\n    function div(uint256 a, uint256 b) internal pure returns (uint256) {\r\n        return div(a, b, \"SafeMath: division by zero\");\r\n    }\r\n\r\n    /**\r\n     * @dev Returns the integer division of two unsigned integers. Reverts with custom message on\r\n     * division by zero. The result is rounded towards zero.\r\n     *\r\n     * Counterpart to Solidity's `/` operator. Note: this function uses a\r\n     * `revert` opcode (which leaves remaining gas untouched) while Solidity\r\n     * uses an invalid opcode to revert (consuming all remaining gas).\r\n     *\r\n     * Requirements:\r\n     * - The divisor cannot be zero.\r\n     *\r\n     * _Available since v2.4.0._\r\n     */\r\n    function div(uint256 a, uint256 b, string memory errorMessage) internal pure returns (uint256) {\r\n        // Solidity only automatically asserts when dividing by 0\r\n        require(b > 0, errorMessage);\r\n        uint256 c = a / b;\r\n        // assert(a == b * c + a % b); // There is no case in which this doesn't hold\r\n\r\n        return c;\r\n    }\r\n\r\n    /**\r\n     * @dev Returns the remainder of dividing two unsigned integers. (unsigned integer modulo),\r\n     * Reverts when dividing by zero.\r\n     *\r\n     * Counterpart to Solidity's `%` operator. This function uses a `revert`\r\n     * opcode (which leaves remaining gas untouched) while Solidity uses an\r\n     * invalid opcode to revert (consuming all remaining gas).\r\n     *\r\n     * Requirements:\r\n     * - The divisor cannot be zero.\r\n     */\r\n    function mod(uint256 a, uint256 b) internal pure returns (uint256) {\r\n        return mod(a, b, \"SafeMath: modulo by zero\");\r\n    }\r\n\r\n    /**\r\n     * @dev Returns the remainder of dividing two unsigned integers. (unsigned integer modulo),\r\n     * Reverts with custom message when dividing by zero.\r\n     *\r\n     * Counterpart to Solidity's `%` operator. This function uses a `revert`\r\n     * opcode (which leaves remaining gas untouched) while Solidity uses an\r\n     * invalid opcode to revert (consuming all remaining gas).\r\n     *\r\n     * Requirements:\r\n     * - The divisor cannot be zero.\r\n     *\r\n     * _Available since v2.4.0._\r\n     */\r\n    function mod(uint256 a, uint256 b, string memory errorMessage) internal pure returns (uint256) {\r\n        require(b != 0, errorMessage);\r\n        return a % b;\r\n    }\r\n}\r\n\r\n// This contract setup the owner.\r\n// This contract provides inheritance to the main contract.\r\ncontract FromParent {\r\n    address payable public owner;\r\n    address payable public beneficiary = address(0);    // Set beneficiary to null\r\n    // address payable public beneficiary = 0x7eE05E06Ab36C97c1E53Ad23F5660ECA8ce28C46;    // Set beneficiary to somthing for testing\r\n\r\n    constructor() public { // Set at start of deployment\r\n        owner = msg.sender;             // Set the owner of contract\r\n    }\r\n}\r\n\r\n// This is the Donations contract\r\n// The contract does the following:\r\n// 1. Initilizes the contract with a donation limit to be collected and a beneficiary. Similar to gofund me.\r\n// 2. Users donate to the contract. Donation must be at least 1 ether.\r\n// 3. Track donations until the donation limit has been reached, or terminate if at least 10% has been collected\r\n// 4. Send 90% of the donations to the beneficiary\r\n// 5. Owner gets 10% of the contract dopnation\r\n\r\n// This contract inherits from the FromParent contract.\r\ncontract Donations is FromParent {\r\n    using SafeMath for uint;\r\n\r\n    mapping (address => uint) private balances;     // Track the donate amount from the user\r\n    \r\n    bool private hasBeneficiary = false;        // Set no beneficiary selected\r\n\tbool private isAtLimit = false;       // Set default for reaching donation limit flag\r\n    bool private stopped = false;       // Set default circuit breaker/ emergency stop flag\r\n\tbool private lock = false;           // Safeguard against reentrancy\r\n\t\r\n    string public emergencyTxt = 'Emergency circuit breaker is NOT ACTIVE';     // Track emergency circuit breaker status\r\n    string public lockTxt = 'Lock is NOT ACTIVE';   // Track lock status\r\n    \r\n    uint public targetAmt;         // Track donation limit to be sought\r\n\tuint public donationAmt;        // Track current donation so far.\r\n    uint public oldDonationAmt;    // Track donation amount before withdraw payout\r\n    uint public oldBalance;         // Track the balance before withdraw payout\r\n    uint public newBalance;         // Track the balance after withdraw payout\r\n\r\n\tuint private escrowAmt;         // Track the escrow amount from the beneficiary\r\n\tuint private beneficiaryAmt;    // Track the beneficiary amount from the total donations\r\n\tuint private ownerAmt;          // Track the owner amount from the total donations\r\n    \r\n//    uint public testNum;                // Passthru var for testing\r\n\r\n    // Setup modifier for only owner \r\n    modifier isAdmin() {\r\n        require(msg.sender == owner);\r\n        _;\r\n    }\r\n\r\n    // Setup modifier for Beneficiary\r\n    modifier hasNoBeneficiary() {\r\n        require(hasBeneficiary == false, 'Beneficiary has already been setup.');\r\n        _;\r\n    }\r\n\r\n    // Setup modifier for circuit breaker / Emergency stop flag to control control\r\n    modifier notInEmergency {\r\n        require(stopped == false, 'Emergency stop is active.');\r\n        _;\r\n    }\r\n    \r\n    // Setup modifier for circuit breaker / Emergency stop flag to control control\r\n    modifier isInEmergency {\r\n        require(stopped == true, 'Emergency stop is not active.');\r\n        _;\r\n    }\r\n    \r\n    // Returns the address of the Beneficiary\r\n    event LogSetBeneficiary(\r\n        address accountAddress\r\n    );\r\n\r\n    event LogRefresh(\r\n        bool refresh\r\n    );\r\n\r\n   // The constructor set up default values for the contract\r\n    constructor() public {\r\n\t\ttargetAmt = 0;                      // Set donaiion target limit to zero\r\n\t\tdonationAmt  = 0;\t\t\t\t    // Set donation to zero\r\n\t\tisAtLimit = false;                  // Set donation flag as false\r\n\t\tlock = false;                       // Set default lock state as false\r\n    }\r\n\r\n    // Setup fallback to protect contract\r\n    function() external payable {\r\n\t\trevert();\r\n\t}\r\n\r\n    // This is a data view function and can be removed at completion.\r\n    // function showIntValues() public view returns (uint, uint, uint, bool, bool, bool, bool) {\r\n    //    return (address(this).balance, targetAmt, donationAmt, isAtLimit, lock, stopped, hasBeneficiary);\r\n    // }\r\n\r\n    // This function set the donation amount and the beneficiary\r\n    // These actions can only be define by the owner\r\n    // The beneficiary must commit to pay at least 10% of the proposed amount to be raised before the conbtract can accept the funding request\r\n    function setDonationAndBeneficiary(uint _targetAmt) hasNoBeneficiary notInEmergency public payable returns (bool) {\r\n        require(msg.sender != owner, 'Owner cannot be beneficiary.');   // Owner cannot be a beneficiary\r\n        require(_targetAmt > 0, 'Donation limit must be greater than zero.');\r\n        require(msg.value > _targetAmt.div(10), 'Escrow amount must be greater than 10% of the amount to be raised.');\r\n        require(msg.value < _targetAmt, 'Escrow amount must be less than the amount to be raised.');\r\n        \r\n        hasBeneficiary = true;          // Accepts beneficiary for the contract and prevent recalling of the function\r\n        escrowAmt = msg.value;          // Seup the escrow amount      \r\n        targetAmt = _targetAmt;     // Setup the donation limit\r\n        beneficiary = msg.sender;       // Setup the beneficiary\r\n        oldDonationAmt = 0;             // Set to zero\r\n        oldBalance = 0;             // Set to zero\r\n        newBalance = address(this).balance;         // Update current contract balance\r\n\r\n        // emit LogSetBeneficiary(beneficiary);\r\n        // return (true);\r\n    }\r\n\r\n    // This is a random development function to be removed\r\n    function setTestBeneficiary() public payable returns (bool) {\r\n        beneficiary = msg.sender;\r\n        newBalance = address(this).balance;\r\n        emit LogRefresh(true);\r\n    }    \r\n\r\n    // This function accepts donations from Users\r\n    function sendDonations() notInEmergency public payable returns (bool) {\r\n        require(hasBeneficiary == true, 'Beneficiary has not been defined.');  // Donation must have a beneficiary\r\n        require(isAtLimit == false, 'Donation limit has been reached.');    // Limit has not been reached\r\n        require(msg.sender != owner, 'Owner cannot be a participant.');   // Owner cannot be a participant\r\n        require(msg.sender != beneficiary, 'Beneficiary cannot be a participant.');   // Beneficiary cannot be a participant\r\n\t\t\r\n\t\tbalances[msg.sender] = balances[msg.sender].add(msg.value);      // Track the donated amt from the user.\r\n\t\tdonationAmt = donationAmt.add(msg.value);  // Track the current donations\r\n        newBalance = address(this).balance;         // Update current contract balance\r\n\t\t\r\n        // Check if donation limit has been reached\r\n\t\tif (donationAmt >= targetAmt) {\r\n    \t\t    isAtLimit = true;     // Set donation flag as having reach the target\r\n                oldDonationAmt = donationAmt;   // Set the old donation amount - Use for testing\r\n                oldBalance = address(this).balance;  // Set the before withdraw balance - Use for testing\r\n    \t\t    withdrawDonations();  // Call withdraw to faciliate payments.\r\n    \t} else {\r\n    \t\t    isAtLimit = false;     // Set donation flag as not having reach the target\r\n    \t}\r\n\t\treturn (true);\r\n    }\r\n\r\n    // This function withdraws for the beneficiary and owner\r\n    // Set global lock to prevent reentrancy\r\n    // Compute payments to beneficiary and owner\r\n    // Send to beneficiary and owner\r\n    // implicitly set the transfer to prevent a reentrancy attack\r\n    // Set payout flag to prevent reentrancy.    \r\n    function withdrawDonations() notInEmergency public payable {\r\n        require (isAtLimit == true, 'Has not reached donation limit.');     // must be at donation limit\r\n        require(!lock);     // Must not already in locked state - This uses a MUTEX lock\r\n        lock = true;        // Force locked state to prevent reenterancy\r\n    \r\n        ownerAmt = donationAmt.div(10);                     // Calculate the owner portion => 10%\r\n        beneficiaryAmt = donationAmt.sub(ownerAmt);         // Calculate the beneficiary payment => 90%\r\n        beneficiaryAmt = beneficiaryAmt.add(escrowAmt);     // Calculate the beneficiary payment adjusted for escrow payment\r\n        \r\n        beneficiary.transfer(beneficiaryAmt);       // Transfer the beneficiary amount to beneficiary\r\n        owner.transfer(ownerAmt);                   // Transfer the owner amount to owner\r\n        newBalance = address(this).balance;  // Set the after withddraw balance - Use for testing\r\n        \r\n        lock = false;               // Clear Locked state\r\n        hasBeneficiary = false;     // Wait for new beneficiary        \r\n        donationAmt = 0;            // Clear to zero and waits for new beneficiary\r\n        targetAmt = 0;              // Clear to zero and waits for new beneficiary\r\n        beneficiaryAmt = 0;         // Set to zero\r\n        ownerAmt = 0;               // Set to zero\r\n        isAtLimit = false;          // Set to false\r\n        beneficiary = address(0);   // Clear beneficiary\r\n    } \r\n\r\n    // Add function that restricts stopping a contract to be based on another action\r\n    function toggleContractActive() isAdmin public {\r\n        stopped = !stopped;     // Set the cirbuit breaker switch\r\n        if (stopped) {\r\n            emergencyTxt = 'Emergency circuit breaker is ACTIVE';\r\n        } else {\r\n            emergencyTxt = 'Emergency circuit breaker is NOT ACTIVE';\r\n        }\r\n    }\r\n\r\n    // This function unlocks the lock for withdraws, just in case the contract is bugged\r\n    function unlockLock() isAdmin isInEmergency public payable {\r\n        lock = !lock;            // Set the lock\r\n        if (lock) {\r\n            lockTxt = 'Lock is ACTIVE';\r\n        } else {\r\n            lockTxt = 'Lock is NOT ACTIVE';\r\n        }        \r\n    }\r\n\r\n    // This function ends collections and send contract value to owner\r\n    function endDonations() isAdmin isInEmergency public payable {\r\n        selfdestruct(owner);    // End contract and send any remaining funds to owner\r\n    }\r\n\r\n}",
  "sourcePath": "C:/Users/tuanp/ConsensysDev/Donations/contracts/Donations.sol",
  "compiler": {
    "name": "solc",
    "version": "0.5.12+commit.7709ece9.Emscripten.clang"
  },
  "schemaVersion": "3.0.19",
  "updatedAt": "2019-12-24T20:50:19.990Z",
  "networkType": "ethereum",
  "devdoc": {
    "methods": {}
  },
  "userdoc": {
    "methods": {}
  }
}